:020000040800F2
:200000000050002045300008610E0008690E0008710E0008790E0008810E00080000000050
:20002000000000000000000000000000890E0008970E000800000000A50E0008B30E0008F0
:20004000953000089530000895300008953000089530000895300008953000089530000838
:20006000953000089530000895300008953000089530000895300008953000089530000818
:2000800095300008953000089530000800000000000000000000000000000000953000082C
:2000A0009530000895300008953000089530000895300008953000089530000895300008D8
:2000C000953000089530000895300008953000089530000895300008953000080000000085
:2000E0009530000895300008953000080000000000000000000000000000000095300008CC
:20010000000000009530000895300008953000080000000000000000000000000000000078
:200120009530000895300008953000089530000895300008000000000000000000000000BE
:2001400000000000000000000000000095300008953000089530000895300008953000089E
:200160009530000895300008000000000000000000000000000000000000000000000000E5
:200180000000000095300008000000000000000095300008953000080000000000000000F8
:2001A00010B5054C237833B9044B13B10448AFF300800123237010BD7C0000200000000001
:2001C000E857000808B5034B1BB103490348AFF3008008BD0000000080000020E85700089C
:2001E000034613F8012B002AFBD1181A0138704701F0FF01102A2BDB10F0070F08D010F840
:20020000013B013A8B422DD010F0070F42B3F6D1F0B441EA012141EA014122F007047FF0E1
:2002200000070023F0E80256083C85EA010586EA010685FA47F5A3FA87F586FA47F6A5FA04
:2002400087F68EB9EED1F0BC01F0FF0102F0070232B110F8013B013A83EA010313B1F8D123
:200260000020704701387047002D06BF35460338073815F0010F07D1013015F4807F02BFE9
:20028000013015F4C03F0130F0BC0138704700BF53B94AB9002908BF00281CBF4FF0FF3128
:2002A0004FF0FF3000F088B9ADF1080C6DE904CE00F006F8DDF804E0DDE9022304B07047C8
:2002C0002DE9F047089D0F4604468C46002B48D18A42164661D9B2FA82F34BB1C3F1200222
:2002E00001FA03FC20FA02F29E4042EA0C0C9C404FEA164EB7B2BCFBFEF1220C0EFB11CC38
:2003000042EA0C4201FB07F0904209D9B21801F1FF3C80F0EE80904240F2EB8002393244C7
:20032000121AA4B2B2FBFEF00EFB102244EA024400FB07F7A74209D9341900F1FF3280F04E
:20034000DA80A74240F2D7803444023840EA0140E41B00211DB1DC400023C5E90043BDE8F1
:20036000F0878B4206D90DB1C5E9000100210846BDE8F087B3FA83F1002948D1BB4202D32D
:20038000824200F20781841A67EB030201209446002DE4D0C5E9004CE1E7002A00F0928060
:2003A000B2FA82F3002B40F0A8808A1A4FEA164E1FFA86FC0121200CB2FBFEF70EFB17228B
:2003C00040EA02420CFB07F0904207D9B21807F1FF3802D2904200F2E2804746121AA4B2FD
:2003E000B2FBFEF00EFB102244EA02440CFB00FCA44507D9341900F1FF3202D2A44500F2C9
:20040000CB801046A4EB0C0440EA0740A2E7C1F120068B4022FA06FC4CEA030C07FA01F4A6
:2004200020FA06F3F7404FEA1C49234300FA01F81FFA8CFEB7FBF9F01C0C09FB107744EA5C
:20044000074400FB0EF7A74202FA01F20AD91CEB040400F1FF3A80F09B80A74240F298809F
:2004600002386444E41B9FB2B4FBF9F309FB134447EA044403FB0EFEA64509D91CEB0404F5
:2004800003F1FF3780F08280A6457FD9023B644443EA0040A4EB0E04A0FB02E7BC4273464F
:2004A000B94663D360D05DB1B8EB030264EB090404FA06F622FA01F31E43CC40C5E900643C
:2004C00000214CE76208480842EAC1710B0C43EA00438AB242EA0342B3FBF6F1E407B44602
:2004E0003746B6461F23B0FBF6F0D21B41EA004161E7614614E7104628E7C3F1200120FA19
:2005000001F29E4027FA01F19F403A434FEA164E1FFA86FCB1FBFEF70EFB1710110C41EA4A
:20052000004107FB0CF8884504FA03F43AD9711807F1FF3001D288451FD8A1EB0801B1FB17
:20054000FEF808FB0CF70EFB181192B242EA0142BA422FD2B21808F1FF31C6D2BA42C4D2A0
:20056000A8F102013244C0E7F0459CD2BEEB020367EB0C070138B94695E7A6EB0808414432
:20058000B81EB1FBFEF808FB0CF7DCE73B467FE7504667E70846FBE63444023832E7023F14
:2005A00032441BE7A1EB08013846B1FBFEF808FB0CF7C8E7414698E7704700BF80B584B074
:2005C00000AF124B1B68FB60104B04331B68BB6072B600BF0E4B00221A600D4B00225A60F1
:2005E0000B4B00229A600B4B084A9A6062B600BFFB683B603B6883F3088800BFBB687B60AC
:200600007B68984700BF1037BD4680BD0082000810E000E000ED00E080B400AF024B18461D
:20062000BD465DF8047B70470080000880B400AF024B1846BD465DF8047B7047000004087C
:2006400080B5CCB000AF07F59873A3F59273186007F59873A3F59473196007F59873A3F560
:2006600096731A6007F59873A3F592731B68C7F824310023C7F82C31384A07F59873A3F55C
:2006800096731B689B1A364A1344C7F8203107F59873A3F594731B68C7F828314EE0D7F8F4
:2006A0002021D7F82C31D31AB3F5807F28BF4FF48073C7F81C3107F114034FF48072FF21AC
:2006C000184604F00BFCD7F82421D7F82C31D118D7F81C2107F11403184604F033FCD7F82D
:2006E0001C310333002B00DA03339B10C7F81831D7F818319AB207F114031946D7F82801BF
:2007000004F050FBC7F81401D7F81431002B06D0D7F81411134800F0C7F9002318E0D7F8C8
:2007200018319B00D7F828211344C7F82831D7F81C31D7F82C211344C7F82C31D7F82C2187
:20074000D7F820319A42AAD3074800F0ADF90123184607F59877BD4680BD00BF0080000827
:2007600000820008005800082858000898B500AFFFF752FF03465B6819460D4800F094F987
:20078000FFF754FF03465B6819460A4800F08CF9FFF74CFF03465C68FFF73EFF03465B6851
:2007A0009C428CBF01230023DBB2184698BD00BF54580008705800082DE9F04387B000AF17
:2007C0006B461E46FFF732FF0346184600F084F80346FB75FB7D002B06D0FB7D1946394840
:2007E00000F062F9002367E0FFF720FF03469B6803F500733B613B69013BFB603B690022DB
:20080000984691464FF000024FF000034FEAC90343EA58734FEAC8023B6900221C4615461D
:200820004FF000024FF00003EB0043EA5473E2003B690733DB08DB00ADEB030D6B46BB6064
:20084000FFF7F4FE03463A691946B86804F07AFB0121062004F0D9FA1B4C1C4DFFF7DCFE2D
:2008600003469B681A4629462046FFF7E9FE0346FB71FB7983F00103DBB2002B04D0144892
:2008800000F012F9002317E00421022004F0BDFABB680D493A691846FFF7D2FE0346FB715C
:2008A000FB7983F00103DBB2002B04D0094800F0FBF8002300E00123B54618461C37BD46B7
:2008C000BDE8F083045900080080000800000408445900087859000890B5ABB002AF786060
:2008E00079683C4800F0E0F83B4800F0DDF87B681B683A4A934201D0012367E0384800F018
:20090000D3F87B689B68002B04D07B689B68354A934201D9022359E0334800F0C5F8334A10
:20092000334BD31A7A6813441946324800F0BCF82E4A2F4BD31A7A681A447B689B68194632
:20094000104600F061F8C7F89C007B68DB68D7F89C209A4201D0042338E007F1080318469F
:2009600002F030F8214A224BD31A7A68D1187B689A6807F10803184602F060F807F108023B
:2009800007F178031146184602F09BF81A4800F08BF87B6803F1100401F058FA034607F166
:2009A0007801009323462022144801F029FDC7F89800134800F078F8D7F89830012B01D067
:2009C000052303E00F4800F06FF800231846A437BD4690BDBC590008E0590008E5B1000BB3
:2009E000105A000800800300385A00080082000800800008605A0008805A0008A05B0008AF
:200A0000985A0008C05A000880B487B000AF786039604FF0FF337B6100233B6121E07A6840
:200A20003B6913441B781A467B6953407B610023FB7310E07B6903F00103002B05D07B6935
:200A40005A080E4B53407B6102E07B695B087B61FB7B0133FB73FB7B072BEBD93B6901330B
:200A60003B613A693B689A42D9D37B69DB4318461C37BD465DF8047B704700BF2083B8EDC4
:200A800080B483B000AF7860064B1B68002B02D1044A7B681360002318460C37BD465DF8D6
:200AA000047B7047980000200FB490B5C3B000AF07F58E7207F58473A3F582731A6007F52C
:200AC0008473A3F5827307F108001B68D7F818214FF4807104F0F4F90B4B1C6807F1080315
:200AE0001846FFF77DFB03469AB207F108016423204603F09BFD00BF07F58677BD46BDE8BC
:200B0000904004B0704700BF9800002080B582B000AF02F0C1FA00F057F800F0E7F800F062
:200B2000BBF82048FFF7ACFF1F48FFF7BDFFFFF71DFE0346FB71FB79002B0BD0FFF73CFE70
:200B40000346002B03D01948FFF7AEFF02E01848FFF7AAFF1748FFF7A7FF1748FFF7BCFE5F
:200B60000346BB71BB79002B14D01448FFF79CFFBB791946642301220A4803F057FD4FF4B7
:200B800000510F4803F091F84FF4FA6002F0F6FA00BFF4E70B48FFF787FFFFF70FFD00BF88
:200BA000FDE700BF9C000020E05A0008F85A0008105B0008305B000800800008445B000805
:200BC00000080240645B000880B594B000AF07F1200330220021184604F080F907F10C037C
:200BE00000221A605A609A60DA601A610023BB60274B1B6C264A43F080531364244B1B6CD6
:200C000003F08053BB60BB6800237B60214B1B68204A43F4404313601E4B1B6803F44043E6
:200C20007B607B6802233B620123FB6210233B630223BB630023FB6308233B6464237B64EE
:200C40000223BB640423FB6407F12003184603F047F80346002B01D000F08CF80F23FB60D9
:200C600002233B6100237B614FF48053BB610023FB6107F10C030321184603F0A9FA03469B
:200C8000002B01D000F076F800BF5037BD4680BD003802400070004080B500AF114B124AAE
:200CA0001A60104B4FF4E1325A600E4B00229A600C4B0022DA600B4B00221A61094B0C22B2
:200CC0005A61084B00229A61064B0022DA61054803F05CFC0346002B01D000F04BF800BF6C
:200CE00080BD00BF9C0000200010014080B588B000AF07F10C0300221A605A609A60DA603E
:200D00001A610023BB60194B1B6B184A43F004031363164B1B6B03F00403BB60BB680023DC
:200D20007B60124B1B6B114A43F0010313630F4B1B6B03F001037B607B6800224FF40051A2
:200D40000B4802F099FF4FF40053FB6001233B6102237B610023BB6107F10C031946044813
:200D600002F006FE00BF2037BD4680BD003802400008024080B400AF72B600BF00BFFDE7F6
:200D800080B483B000AF00237B60104B5B6C0F4A43F4804353640D4B5B6C03F480437B605F
:200DA0007B6800233B60094B1B6C084A43F080531364064B1B6C03F080533B603B6800BF4D
:200DC0000C37BD465DF8047B704700BF0038024080B58AB000AF786007F1140300221A6068
:200DE0005A609A60DA601A617B681B68194A93422CD100233B61184B5B6C174A43F010035F
:200E00005364154B5B6C03F010033B613B690023FB60114B1B6B104A43F0010313630E4BEE
:200E20001B6B03F00103FB60FB684FF4C0637B610223BB610023FB6103233B6207237B62AB
:200E400007F114031946054802F092FD00BF2837BD4680BD001001400038024000000240EB
:200E600080B400AF00BFFDE780B400AF00BFFDE780B400AF00BFFDE780B400AF00BFFDE75A
:200E800080B400AF00BFFDE780B400AF00BFBD465DF8047B704780B400AF00BFBD465DF8A2
:200EA000047B704780B400AF00BFBD465DF8047B704780B500AF02F041F900BF80BD0000C0
:200EC00080B586B000AF7860144A154BD31A7B617B693B61134B1B68002B02D1114B124A82
:200EE0001A60104B1A687B6813443A699A4207D203F0FCFF03460C221A604FF0FF3309E0D0
:200F0000084B1B68FB60074B1A687B681344054A1360FB6818461837BD4680BD0050002010
:200F200000040000E40000203802002080B400AF064BD3F88830054A43F47003C2F888302D
:200F400000BFBD465DF8047B704700BF00ED00E080B485B000AF78600B46FB700023FB737B
:200F60000AE097F90F309B007A68134400221A60FB7B0133DBB2FB7397F90F2097F9033021
:200F80009A42EEDB00BF00BF1437BD465DF8047B704780B485B000AF78600B46FB70002386
:200FA000FB600023FB720CE097F90B309B007A6813441B68FA681343FB60FB7A0133DBB2EF
:200FC000FB7297F90B2097F903309A42ECDBFB68002B0CBF01230023DBB218461437BD46AA
:200FE0005DF8047B704780B483B000AF78600B467B80B7F902305B111BB29B007A6813443D
:201000001A687B8803F01F03012101FA03F3134018460C37BD465DF8047B704780B485B038
:2010200000AF78600B46FB70FB78013BDBB2FB7303E0FB7B013BDBB2FB7397F90F30002B39
:2010400007DB97F90F309B007A6813441B68002BEFD0FB7B0133DBB25BB218461437BD46AE
:201060005DF8047B704780B586B000AF78600B46FB7097F9033019467868FFF7CFFF034628
:20108000FB7397F90F30002B01D1002321E097F90F3003F18043013B9B007A6813441B68D9
:2010A0003B6100237B6105E03B695B083B617B6901337B613B69002BF6D197F90F309BB267
:2010C000013B9BB25B019AB27B699BB213449BB21BB218461837BD4680BD80B487B000AF36
:2010E000F860B9601346FB710023FB750FE097F917309B00BA681A4497F917309B00F96873
:201100000B4412681A60FB7D0133DBB2FB7597F9172097F907309A42E9DB00BF00BF1C37E4
:20112000BD465DF8047B704780B487B000AFF860B9601346FB71FB79013BDBB2FB7524E020
:2011400097F917309B00FA6813441A6897F917309B00B9680B441B689A4201D9012319E0AA
:2011600097F917309B00FA6813441A6897F917309B00B9680B441B689A4202D24FF0FF333C
:2011800008E0FB7D013BDBB2FB7597F91730002BD6DA002318461C37BD465DF8047B7047A2
:2011A00080B487B000AFF860B9601346FB7100237B61FB79013BDBB2FB7413E097F913306E
:2011C0009B00FA6813441A6897F913309B00B9680B441B6853407A6913437B61FB7C013B7D
:2011E000DBB2FB7497F91330002BE7DA7B69002B14BF01230023DBB218461C37BD465DF875
:20120000047B704780B485B000AFF860B9607A60FB687A6803FB02F27B68002B0CBF012301
:201220000023DBB21946BB6801FB03F3134318461437BD465DF8047B704780B588B000AFE1
:20124000F860B9607A60FB700023FB610023FB7639E097F91B309B00BA6813441A6897F9AB
:201260001B309B0079680B441B68D21AFB69D31A7B6197F91B309B00BA6813441B687A6967
:201280009A428CBF01230023DBB23B6197F91B309B00BA6813441B687A699A4214BF01238F
:2012A0000023DBB21A46F9693869FFF7ABFFF86197F91B309B00FA6813447A691A60FB7E1D
:2012C0000133DBB2FB7697F91B2097F903309A42BFDBFB6918462037BD4680BD80B588B012
:2012E00000AFF860B9607A60FB700023FB610023FB7639E097F91B309B00BA6813441A68EC
:2013000097F91B309B0079680B441B681344FA6913447B6197F91B309B00BA6813441B6845
:201320007A699A4234BF01230023DBB23B6197F91B309B00BA6813441B687A699A4214BF87
:2013400001230023DBB21A46F9693869FFF75AFFF86197F91B309B00FA6813447A691A6022
:20136000FB7E0133DBB2FB7697F91B2097F903309A42BFDBFB6918462037BD4680BD80B431
:2013800087B000AF78600B46FB707B683B6100237B6197F903309B007A6813447B600BE0F8
:2013A0007B681B68FB60FB685A087B691A437B681A60FB68DB077B617B681A1F7A603A694F
:2013C0009A42EDD300BF00BF1C37BD465DF8047B70472DE9B00F91B000AFF862B9627A62FC
:2013E0003B62FB6A002298469146BB6A00229A4693460AFB09F208FB0BF31344A8FB0A45CA
:201400002B441D46C7E90E45C7E90E453B6A1B680022BB61FA614FF000024FF00003B9698E
:201420000B000022796A0968002039617861D7E9044521461143B96029461943F960D7E9D7
:201440000234C7E90C34D7E90C01D7E90E2384183C6041EB03037B60D7E90034C7E90C347F
:201460003B6E1C68D7E90C01D7E90E23904271EB030334BF01230023DBB2E2183B6E1A6069
:20148000D7E90C014FF000024FF000030A0000233B6A1A603A6B7B6A1A6000BF4437BD466F
:2014A000BDE8B00F704790B58BB002AFF860B9607A60FB700023BB6100237B6100233B612D
:2014C0000023BB7736E00023FB771CE097F91F309B00BA681344186897F91E2097F91F30F0
:2014E000D31A9B007A681344196807F1140407F1180207F1100300932346FFF76AFFFB7FA8
:201500000133DBB2FB7797F91F2097F91E309A42DCDD97F91E309B00FA681344BA691A6087
:201520007B69BB613B697B6100233B61BB7F0133DBB2BB7797F91E2097F903309A42C2DB35
:20154000FB78BB773BE0BA7FFB78D31ADBB20133DBB2FB771CE097F91F309B00BA68134483
:20156000186897F91E2097F91F30D31A9B007A681344196807F1140407F1180207F11003CF
:2015800000932346FFF725FFFB7F0133DBB2FB7797F91F2097F903309A42DCDB97F91E3085
:2015A0009B00FA681344BA691A607B69BB613B697B6100233B61BB7F0133DBB2BB7797F93E
:2015C0001E2097F903305B00013B9A42BBDB97F90330DB00043BFA681344BA691A6000BF0F
:2015E0002437BD4690BD80B586B000AFF860B9607A603B6097F920307A68B968F868FFF707
:201600006DFE78617B69002B09D197F920301A46F9683868FFF788FD0346012B06D097F906
:2016200020303A68F968F868FFF707FE00BF1837BD4680BD80B586B000AFF860B9607A6049
:201640003B6097F920307A68B968F868FFF7F5FD78617B69002B06D097F920303A68F96823
:20166000F868FFF73BFE00BF1837BD4680BD90B5ADB000AFF860B9607A60FB7007F1180373
:201680003B61BB687B6197F903309BB29B019CB297F9033019467868FFF7E5FC03469BB246
:2016A000E31A9BB2A7F8AA30B7F9AA30002B00DA1F335B111BB287F89E30B7F9AA305A42DA
:2016C00003F01F0302F01F0258BF53421BB287F89D300023C7F8A43097F99E2007F15803C6
:2016E00011461846FFF734FC97F99D30002B34DD0023C7F8AC3029E0D7F8AC309B007A6887
:2017000013441A6897F99D3002FA03F197F99E20D7F8AC301344D7F8A4200A439B00B033F5
:201720003B4443F8582CD7F8AC309B007A6813441A6897F99D30C3F1200322FA03F3C7F865
:20174000A430D7F8AC300133C7F8AC3097F90330D7F8AC209A42CFD30BE097F99E309B007B
:2017600007F15802134497F9032079681846FFF7B4FC0123C7F8AC309FE00023C7F8A03038
:20178000002387F89F3053E0D7F8AC309B00B0333B4453F8A02C97F99F309B0013441A6813
:2017A00097F99F309B00B0333B4453F8583CD21AD7F8A030D31AC7F89830D7F8AC309B00A9
:2017C000B0333B4453F8A02C97F99F309B0013441B68D7F898209A4214D0D7F8AC309B002F
:2017E000B0333B4453F8A02C97F99F309B0013441B68D7F898209A428CBF01230023DBB21A
:20180000C7F8A030D7F8AC30C3F101039B00B0333B4453F8A02C97F99F309B001344D7F8A2
:2018200098201A6097F89F300133DBB287F89F3097F99F2097F903305B009A42A4DBD7F872
:20184000AC20D7F8A0309A420CBF01230023DBB2C7F8AC3097F9032007F15803114618464C
:20186000FFF78DFD97F90330013B9B00B0333B4453F8581C97F903309B00B0333B4453F822
:20188000583CDA0797F90330013B0A439B00B0333B4443F8582C97F903309B0007F158021B
:2018A000134497F9032011461846FFF768FDB7F8AA30013B9BB2A7F8AA30B7F9AA30002BCE
:2018C000BFF65BAFD7F8AC309B00B0333B4453F8A03C97F903201946F868FFF7FEFB00BF5A
:2018E000B437BD4690BD80B594B000AFF860B9607A603B6097F9583007F110007A68B9687C
:20190000FFF7D1FD97F9583007F110013A68F868FFF7ADFE00BF5037BD4680BD80B594B040
:2019200000AFF860B9607A603B603B6893F9003007F110007A68B968FFF7B5FD3B68D3F892
:20194000AC3007F110021146F868984700BF5037BD4680BD80B584B000AFF860B9607A6022
:201960007B68BA68B968F868FFF7D8FF00BF1037BD4680BD80B586B000AFF860B9601346EA
:20198000FB7100237B61FB681B6803F00103002B07D097F90730BA68F968F868FFF79EFCC3
:2019A000786197F907301946F868FFF7E8FC7B69002B13D097F9073003F18043013B9B00A7
:2019C000FA6813441A6897F9073003F18043013B9B00F9680B4442F000421A6000BF1837CB
:2019E000BD4680BD80B5A6B000AFF860B9607A60FB7097F903301946B868FFF7CAFA034672
:201A0000002B06D097F903301946F868FFF7A0FADEE097F9032007F17403B9681846FFF75E
:201A20005CFB97F9032007F1540379681846FFF754FB97F9032007F1340311461846FFF73C
:201A400087FA01237B6397F9032007F1140311461846FFF77DFAA2E07B6F03F00103002B91
:201A600010D197F9032007F1740311461846FFF786FC97F9032007F1340379681846FFF71F
:201A800079FF8CE07B6D03F00103002B10D197F9032007F1540311461846FFF770FC97F9CE
:201AA000032007F1140379681846FFF763FF76E097F99730002B39DD97F9033007F154025E
:201AC00007F1740107F17400FFF7B7FB97F9032007F1740311461846FFF751FC97F90320B8
:201AE00007F1140107F134031846FFF71DFB0346002B08DA97F9033007F1340107F13400CC
:201B00007A68FFF7EBFB97F9033007F1140207F1340107F13400FFF790FB97F9032007F1B1
:201B2000340379681846FFF725FF38E097F9033007F1740207F1540107F15400FFF77DFBC5
:201B400097F9032007F1540311461846FFF717FC97F9032007F1340107F114031846FFF782
:201B6000E3FA0346002B08DA97F9033007F1140107F114007A68FFF7B1FB97F9033007F117
:201B8000340207F1140107F11400FFF756FB97F9032007F1140379681846FFF7EBFE97F93F
:201BA000032007F1540107F174031846FFF7BCFA034687F8973097F99730002B7FF44CAFBD
:201BC00097F9032007F134031946F868FFF785FA9837BD4680BD80B598B002AFF860B96041
:201BE0007A603B603B681B7887F8573097F9573019467868FFF7CDF90346002B40F0E68018
:201C000007F130033A68B9681846FFF7A3FE07F1300207F110003B68F968FFF77FFE07F140
:201C2000300107F130033A681846FFF793FE3B687A68B968B868FFF771FE3A687968786833
:201C4000FFF788FE3B681A1D97F95730009313467A68F968F868FFF7C6FC3B681A1D97F966
:201C60005730009313467A6879687868FFF7BBFC3B681A1D97F95730009313467A68F96881
:201C80007868FFF7D7FC3B687A68F968F868FFF745FE3B681A1D97F9573000931346FA68DD
:201CA000F9687868FFF79FFC3B681A1D97F95730009313467A68F968F868FFF794FC00212B
:201CC000F868FFF790F90346002B24D03B681A1D97F95730F968F868FFF700FB386597F9ED
:201CE00057301946F868FFF74AFB97F9573003F18043013B9B00FA68134419683B6DDA07FB
:201D000097F9573003F18043013B9B00F86803440A431A6005E097F957301946F868FFF7FF
:201D20002EFB3A68F9687868FFF714FE3B68191D07F1100297F9573000930B4679687868F0
:201D4000FFF778FC3B68191D07F1100297F9573000930B4679687868FFF76CFC3B681A1D42
:201D600007F1100107F1100097F95730009313467A68FFF75FFC07F110023B68F968F868AE
:201D8000FFF7CCFD3B68191D07F1300207F1300097F9573000930B46F968FFF74BFC97F930
:201DA00057301A467968F868FFF797F997F957301A46B9687868FFF790F997F9572007F17F
:201DC00030031946B868FFF788F900E000BF5837BD4680BD80B590B002AFF860B9607A60FB
:201DE00007F1140320220021184603F077F803237B617B681B7887F837307A68B968F868F0
:201E0000FFF7A8FD7B68191D07F1140297F9373000930B46F968F868FFF70CFC7B68BA6861
:201E2000F968F868FFF77AFD7B6803F184027B68191D97F9373000930B46F968F868FFF76C
:201E4000D2FB00BF3837BD4680BD000080B400AF024B1846BD465DF8047B7047F85B0008D0
:201E600080B58CB000AF78603960082239687868FFF733F900237B617B693B613B69FB6086
:201E80003B68DB6ABB613B681B6BFB613B685B6B3B623B689B6B7B623B68DB6BBB6207F12F
:201EA0000C0207F10C0107F10C000823FFF716FA0346FB6207F10C02082379687868FFF74C
:201EC0000DFA0246FB6A1344FB623B681B6BBB613B685B6BFB613B689B6B3B623B68DB6B61
:201EE0007B620023BB6207F10C0207F10C0107F10C000823FFF7F2F90246FB6A1344FB6249
:201F000007F10C02082379687868FFF7E7F90246FB6A1344FB623B681B6AFB603B685B6AAD
:201F20003B613B689B6A7B6100233B623B6AFB61FB69BB613B689B6B7B623B68DB6BBB62B4
:201F400007F10C02082379687868FFF7C7F90246FB6A1344FB623B685B6AFB603B689B6A0D
:201F60003B613B68DB6A7B613B685B6BBB613B689B6BFB613B68DB6B3B623B685B6B7B62AB
:201F80003B681B6ABB6207F10C02082379687868FFF7A4F90246FB6A1344FB623B68DB6A2E
:201FA000FB603B681B6B3B613B685B6B7B6100233B623B6AFB61FB69BB613B681B6A7B6276
:201FC0003B689B6ABB6207F10C02082379687868FFF733F90246FB6A9B1AFB623B681B6B40
:201FE000FB603B685B6B3B613B689B6B7B613B68DB6BBB6100233B623B6AFB613B685B6ACE
:202000007B623B68DB6ABB6207F10C02082379687868FFF712F90246FB6A9B1AFB623B6889
:202020005B6BFB603B689B6B3B613B68DB6B7B613B681B6ABB613B685B6AFB613B689B6AC5
:202040003B6200237B623B681B6BBB6207F10C02082379687868FFF7F0F80246FB6A9B1A6B
:20206000FB623B689B6BFB603B68DB6B3B6100237B613B685B6ABB613B689B6AFB613B6850
:20208000DB6A3B6200237B623B685B6BBB6207F10C02082379687868FFF7CFF80246FB6A7C
:2020A0009B1AFB62FB6A002B17DA0823124A79687868FFF713F90246FB6A1344FB62FB6A7D
:2020C000002BF2DB14E008230B4A79687868FFF7B4F80246FB6A9B1AFB62FB6A002BF2D11F
:2020E000082279680448FFF71FF80346012BEAD100BF3037BD4680BDFC5B000880B58CB016
:2021000000AFF860B9607A603B6007F110033A6879681846FFF71EFC07F110023B68F96820
:20212000F868FFF7FBFB07F1100107F110003B687A68FFF7F3FB07F110023B68B968B868EB
:20214000FFF7ECFB00BF3037BD4680BD80B590B002AFF860B9607A603B603B6C1B7887F877
:2021600037303B6C1A1D07F1140097F9373000931346FA687968FFF75DFA07F1140107F196
:2021800014033A6C1846FFF7E5FB07F114023B6CF968F868FFF7C2FB07F114023B6C79688F
:2021A0007868FFF7BBFB3B6C1A1D97F9373000931346BA6839683868FFF73CFA07F1140334
:2021C0003A6C39681846FFF7C5FB3B6C1A1D07F1140107F1140097F9373000931346FA6868
:2021E000FFF728FA3B6C1A1D07F1140107F1140097F93730009313467A68FFF71BFA3B6C59
:202200001A1D97F9373000931346FA6879687868FFF710FA3B6C7A68B968B868FFF77EFB48
:202220003B6C191D07F1140297F9373000930B46F9687868FFF7FEF93B6C7A6839683868E0
:20224000FFF76CFB3B6C1A1D97F9373000931346BA6839683868FFF7EDF997F9372007F142
:20226000140319467868FEF738FF00BF3837BD4680BD80B586B000AFF860B9607A607B6826
:202280000333002B00DA03339B105BB21946F868FEF75EFE0023FB7521E07B685A1E97F986
:2022A0001730D31A3B613B6923F00303FA681344196897F91730BA6813441B781A463B6970
:2022C00003F00303DB009A403B6923F00303F86803440A431A60FB7D0133DBB2FB7597F9EC
:2022E00017307A689A42D8DC00BF00BF1837BD4680BD80B58AB000AFF860B9607A603B6014
:202300003B68B3F902300733002B00DA0733DB10FB613B68B3F902301F33002B00DA1F3352
:202320005B11BB617A68FB699A4201D9FB697B60BB695BB21946F868FEF70AFE7B681A46AA
:20234000B968F868FFF795FF7B68DB003A68B2F9022093423AD97B68DB003A68B2F9022030
:202360009B1A7B6100237B62BB699B00FA6813443B6210E03B6A1B683B613A697B69DA4062
:202380007B6A1A433B6A1A607B69C3F120033A6902FA03F37B623B6A1A1F3A62FA689A42F7
:2023A000E8D33B682433BA6952B2F9681846FEF7BBFE0346012B0AD03B6803F12402BB69A4
:2023C0005BB2F968F868FEF738FF00E000BF2837BD4680BD80B483B000AF03460A46FB809B
:2023E0001346BB80B7F90420B7F906309342B8BF13461BB218460C37BD465DF8047B7047EE
:2024000090B5FFB002AF07F5F874A4F5F274206007F5F870A0F5F470016007F5F871A1F577
:20242000F6710A6007F5F872A2F5F8721360D7F800321B7887F8ED31D7F80032B3F90230E1
:202440001F33002B00DA1F335B1187F8EC3197F9EC31013B9B0003F5F8733B44002243F808
:20246000D02C97F9EC315A1E07F5F873A3F5E073002143F8221097F9EC315A1E07F5F873CF
:20248000A3F5F073002143F82210D7F8003293F901301A4607F5F873A3F5F27307F15000E9
:2024A0001968FFF7E6FE97F9ED319B0007F15002D018D7F8003293F901301A4607F5F873C1
:2024C000A3F5F2731B689918D7F8003293F901301A46FFF7CEFED7F8003293F901301A46CD
:2024E00007F5F873A3F5F87307F130001968FFF7C0FED7F8003293F901301A4607F5F87390
:20250000A3F5F8731B689918D7F8003293F901301A4607F110031846FFF7ABFE97F9ED21C0
:2025200007F1300311461846FEF733FD0346002B0AD197F9ED2107F1100311461846FEF7F4
:2025400028FD0346002B01D0002325E2D7F80032243397F9EC2107F130011846FEF7E4FD95
:202560000346012B0CD1D7F80032243397F9EC2107F110011846FEF7D7FD0346012B01D09E
:20258000002309E2D7F8003203F1240297F9EC3107F1100107F5C070FFF724FA97F9EC316F
:2025A000013B9B0003F5F8733B44002243F8302C07F5F873A3F5F67207F5F873A3F5F471DE
:2025C00007F5E070D7F8003212680968FFF791FED7F8003203F1240407F5C07207F5E071A6
:2025E00007F5E07097F9EC3100932346FFF77BF9D7F8003203F1240407F5C07207F1300108
:2026000007F5D07097F9EC3100932346FFF76BF997F9ED2107F1500107F5A0731846FEF732
:202620005CFD97F9ED319B0007F5A072D01897F9ED319B0007F15002134497F9ED2119461B
:20264000FEF74BFDD7F8003203F1440197F9ED2107F1E0031846FEF740FDD7F8003203F105
:20266000440297F9ED319B00D11897F9ED2107F1C0031846FEF731FDD7F800321C1D07F1D6
:20268000E00207F5A07107F5C07097F9ED3100932346FEF7CFFF97F9ED319B0007F5A0725B
:2026A000D41807F5A07207F1C00107F1E000D7F8003200932346FFF749FDD7F800321A1D1E
:2026C00097F9ED3107F5C07107F5C070FFF78AF997F9ED319B0007F5A072D11807F5C0720C
:2026E00007F5A070D7F80032FFF708FD07F5F873A3F5B07300221A60D7F8003203F14402D9
:2027000007F5F873A3F5B0735A6007F5F873A3F5B07307F150029A6007F5F873A3F5B07355
:2027200007F5A072DA6097F9EC2107F5E07311461846FEF798FC03461C4697F9EC2107F5E3
:20274000D07311461846FEF78EFC034619462046FFF740FE0346A7F8EA31B7F8EA31013BB7
:202760009BB21AB207F5E07311461846FEF73BFC0346002B14BF01230023DBB21C46B7F8E4
:20278000EA31013B9BB21AB207F5D07311461846FEF729FC0346002B01D0022300E000234E
:2027A00043EA040207F5F873A3F5B07353F82230C7F8E43197F9ED2107F59073D7F8E411F2
:2027C0001846FEF78AFC97F9ED319B00D7F8E421D11897F9ED2107F580731846FEF77DFCC1
:2027E00097F9ED2107F5C07311461846FEF7B0FB0123C7F88031B7F8EA31023B9BB2A7F830
:20280000EE3187E0D7F80032D3F8A44007F5C07207F5807107F59070D7F80032A047B7F9D3
:20282000EE2107F5E07311461846FEF7DCFB0346002B14BF01230023DBB21C46B7F9EE217D
:2028400007F5D07311461846FEF7CDFB0346002B01D0022300E000232343C7F8E03107F528
:20286000F873A3F5B073D7F8E02153F82230C7F8E431D7F8E431002B46D097F9ED2107F136
:20288000E003D7F8E4111846FEF727FC97F9ED319B00D7F8E421D11897F9ED2107F1C003BC
:2028A0001846FEF71AFC07F5C07207F1C00107F1E000D7F80032FFF721FCD7F800321C1DA2
:2028C00007F1E00207F5907107F1A00097F9ED3100932346FEF7AEFE07F5807407F5907250
:2028E00007F1C00107F1E000D7F8003200932346FFF72CFC07F1A00207F5C07107F5C07039
:20290000D7F80032FFF70AF8B7F8EE31013B9BB2A7F8EE31B7F9EE31002BBFF673AFD7F809
:2029200000321A1D97F9ED3107F5C07107F5C070FFF758F807F5C07207F5807107F59070CA
:20294000D7F80032FFF7DAFBD7F80032243397F9EC2107F590711846FEF7E6FB0346012B10
:202960000BD0D7F8003203F1240297F9EC3107F5907107F59070FEF760FC97F9ED2107F1D4
:20298000300107F590731846FEF70AFC0346002B0CBF01230023DBB2184607F5FA77BD46CD
:2029A00090BD80B584B000AFF8600B467A60FB72FB7A7A681946F86802F090FA00BF10372A
:2029C000BD4680BD80B582B000AF78607B68002B01D100231DE0702200217868FFF7E1FF60
:2029E0007B680E4A1A607B680D4A5A607B680D4A9A607B680C4ADA607B680C4A1A617B68F0
:202A00000B4A5A617B680B4A9A617B680A4ADA61012318460837BD4680BD00BF67E6096A81
:202A200085AE67BB72F36E3C3AF54FA57F520E518C68059BABD9831F19CDE05BB0B584B06B
:202A400000AFF860B9607A60FB68002B02D0BB68002B01D1002330E07B68002B27D101239F
:202A60002BE0BA68531CBB60FB689B6E581CF96888661178FA6813440A4683F82820FB68B8
:202A80009B6E3F2B13D9FA68FB6828331946104600F04EF9FB6800229A66FB68D3E90823FC
:202AA00012F5007443F10005FB68C3E908457B685A1E7A60002BD4D1012318461037BD4635
:202AC000B0BD2DE9B04384B000AF786039607B68002B02D03B68002B01D10023E1E03B6825
:202AE000D3E908233968896EC90000200C46054612EB040843EB05093B68C3E908893B6809
:202B00009B6E591C3A6891663A681344802283F828203B689B6E382B17D93B6803F1280280
:202B20003B689B6ED0183B689B6EC3F140031A460021FFF736FF3A683B682833194610465D
:202B400000F0F6F83B6800229A663B6803F128023B689B6ED0183B689B6EC3F138031A4682
:202B60000021FFF71EFF3B68D3E90823D2B23B6883F867203B68D3E908014FF000024FF086
:202B80000003020A42EA01620B0AD2B23B6883F866203B68D3E908014FF000024FF000036F
:202BA000020C42EA01420B0CD2B23B6883F865203B68D3E908014FF000024FF00003020E5F
:202BC00042EA01220B0ED2B23B6883F864203B68D3E908014FF000024FF000030A0000234F
:202BE000D2B23B6883F863203B68D3E908014FF000024FF000030A0A0023D2B23B6883F8EC
:202C000062203B68D3E908014FF000024FF000030A0C0023D2B23B6883F861203B68D3E98C
:202C200008014FF000024FF000030A0E0023D2B23B6883F860203A683B6828331946104656
:202C400000F076F80023FB6022E03B68FA6853F82230BB60BB68190E7B685A1C7A60CAB2E0
:202C60001A70BB68190C7B685A1C7A60CAB21A70BB68190A7B685A1C7A60CAB21A707B68E7
:202C80005A1C7A60BA68D2B21A70FB680133FB60FB68072BD9D9702200213868FFF781FEB3
:202CA000012318461037BD46BDE8B08380B483B000AF786039607A683B6862FA03F31846B4
:202CC0000C37BD465DF8047B704780B485B000AF78600023FB607B681B68591C7A68116087
:202CE0001B781B06FB607B681B68591C7A6811601B781B04FA681343FB607B681B68591CF7
:202D00007A6811601B781B02FA681343FB607B681B68591C7A6811601B781A46FB681343C3
:202D2000FB60FB6818461437BD465DF8047B704790B5A1B000AF786039607B681B68FB6720
:202D40007B685B68BB677B689B687B677B68DB683B677B681B69FB667B685B69BB667B68A8
:202D60009B697B667B68DB693B660023FB656BE03B461846FFF7A9FFB864FB6D9B00803389
:202D80003B44BA6C43F8782CFB6D9B0080333B4453F8783C3B650621F86EFFF787FF044688
:202DA0000B21F86EFFF782FF03465C401921F86EFFF77CFF034684EA03023B6E1A44F96EEA
:202DC000BB6E1940FB6ED8437B6E03404B401A449B49FB6D51F8233013443A6D13443B65FB
:202DE0000221F86FFFF762FF04460D21F86FFFF75DFF03465C401621F86FFFF757FF0346A9
:202E000084EA0302B96F7B6F5940FB6F1940B86F7B6F03404B401344FB647B6E3B66BB6E89
:202E20007B66FB6EBB663A6F3B6D1344FB667B6F3B67BB6F7B67FB6FBB673A6DFB6C134495
:202E4000FB67FB6D0133FB65FB6D0F2B90D9B0E0FB6D013303F00F039B0080333B4453F8C0
:202E6000783CBB650721B86DFFF720FF04461221B86DFFF71BFF034684EA0302BB6DDB08A3
:202E80005340BB65FB6D0E3303F00F039B0080333B4453F8783C7B651121786DFFF706FF13
:202EA00004461321786DFFF701FF034684EA03027B6D9B0A53407B65FB6D03F00F039B00F5
:202EC00080333B4453F8781CBA6D7B6D1A44FB6D093303F00F039B0080333B4453F8783CFF
:202EE0001344FA6D02F00F021944930080333B4443F8781C930080333B4453F8783C3B65BC
:202F00000621F86EFFF7D2FE04460B21F86EFFF7CDFE03465C401921F86EFFF7C7FE034638
:202F200084EA03023B6E1A44F96EBB6E1940FB6ED8437B6E03404B401A444149FB6D51F85A
:202F4000233013443A6D13443B650221F86FFFF7ADFE04460D21F86FFFF7A8FE03465C409E
:202F60001621F86FFFF7A2FE034684EA0302B96F7B6F5940FB6F1940B86F7B6F03404B4014
:202F80001344FB647B6E3B66BB6E7B66FB6EBB663A6F3B6D1344FB667B6F3B67BB6F7B67BC
:202FA000FB6FBB673A6DFB6C1344FB67FB6D0133FB65FB6D3F2B7FF64BAF7B681A68FB6FB2
:202FC0001A447B681A607B68043319687B680433BA6F0A441A607B68083319687B680833D3
:202FE0007A6F0A441A607B680C3319687B680C333A6F0A441A607B68103319687B6810331D
:20300000FA6E0A441A607B68143319687B681433BA6E0A441A607B68183319687B681833DE
:203020007A6E0A441A607B681C3319687B681C333A6E0A441A6000BF8437BD4690BD00BF02
:20304000A85C0008DFF834D0FDF770FF0C480D490D4A002302E0D458C4500433C4188C42FF
:20306000F9D30A4A0A4C002301E013600432A242FBD301F041FFFDF749FD704700500020E9
:20308000000000207C000020EC5D00087C00002034020020FEE7000080B500AF0E4B1B688C
:2030A0000D4A43F4007313600B4B1B680A4A43F480631360084B1B68074A43F4807313601E
:2030C000032000F031F90F2000F008F8FDF758FE0023184680BD00BF003C024080B582B0E8
:2030E00000AF7860124B1A68124B1B7819464FF47A73B3FBF1F3B2FBF3F3184600F03BF944
:203100000346002B01D001230EE07B680F2B0AD8002279684FF0FF3000F011F9064A7B68BB
:203120001360002300E0012318460837BD4680BD00000020080000200400002080B400AFC9
:20314000064B1B781A46064B1B681344044A136000BFBD465DF8047B704700BF080000200B
:20316000E800002080B400AF034B1B681846BD465DF8047B704700BFE800002080B584B077
:2031800000AF7860FFF7EEFFB8607B68FB60FB68B3F1FF3F05D00A4B1B781A46FB68134453
:2031A000FB6000BFFFF7DEFF0246BB68D31AFA689A42F7D800BF00BF1037BD4680BD00BFF9
:2031C0000800002080B485B000AF78607B6803F00703FB600C4BDB68BB60BA684FF6FF037E
:2031E0001340BB60FB681A02BB68134343F0BF6343F40033BB60044ABB68D36000BF1437E1
:20320000BD465DF8047B704700ED00E080B400AF044BDB681B0A03F007031846BD465DF806
:20322000047B704700ED00E080B483B000AF03463960FB7197F90730002B0ADB3B68DAB221
:203240000C4997F907301201D2B20B4483F800230AE03B68DAB20849FB7903F00F03043BAC
:203260001201D2B20B441A7600BF0C37BD465DF8047B704700E100E000ED00E080B489B04D
:2032800000AFF860B9607A60FB6803F00703FB61FB69C3F10703042B28BF0423BB61FB6999
:2032A0000433062B02D9FB69033B00E000237B614FF0FF32BB6902FA03F3DA43BB681A402A
:2032C0007B699A404FF0FF317B6901FA03F3D9437B680B40134318462437BD465DF8047BBC
:2032E0007047000080B582B000AF78607B68013BB3F1807F01D301230FE00A4A7B68013B0D
:2033000053600F214FF0FF30FFF78EFF054B00229A60044B07221A60002318460837BD46B8
:2033200080BD00BF10E000E080B582B000AF78607868FFF747FF00BF0837BD4680BD80B544
:2033400086B000AF0346B9607A60FB7300237B61FFF75CFF78617A68B9687869FFF78EFF4E
:20336000024697F90F3011461846FFF75DFF00BF1837BD4680BD80B582B000AF7860786813
:20338000FFF7B0FF034618460837BD4680BD000080B586B000AFF860B960C7E90023234B96
:2033A0001B7E012B01D102233BE0204B01221A764CF2503000F07CF80346FB75FB7D002B9A
:2033C0002BD1FB68002B05D13B781946B86800F027F916E0FB68012B05D13B881946B868AE
:2033E00000F0FAF80DE0FB68022B05D13B681946B86800F0CFF804E0D7E90023B86800F0E8
:2034000097F84CF2503000F053F80346FB75084B1B69074A23F001031361044B00221A76B7
:20342000FB7D18461837BD4680BD00BF0C000020003C024080B483B000AF0023FB710B4BC3
:203440001B69002B0BDA094B094A5A60074B094A5A60064B1B69002B01DA0123FB71FB7939
:2034600018460C37BD465DF8047B7047003C024023016745AB89EFCD80B400AF054B1B6928
:20348000044A43F00043136100231846BD465DF8047B7047003C024080B400AF034BDB69F2
:2034A0001846BD465DF8047B704700BF0C00002080B584B000AF78600023FB601A4B002240
:2034C000DA61FFF74FFEF86010E07B68B3F1FF3F0CD07B68002B07D0FFF744FE0246FB68BD
:2034E000D31A7A689A4201D2032319E00F4BDB6803F48033002BE8D10C4BDB6803F0010373
:20350000002B02D0094B0122DA60084BDB6803F4F973002B03D000F0A5F8012300E0002352
:2035200018461037BD4680BD0C000020003C024080B485B000AFF860C7E90023144B1B69D6
:20354000134A23F440731361114B1B69104A43F4407313610E4B1B690D4A43F00103136159
:20356000FB683A681A60BFF36F8F00BFD7E900014FF000024FF000030A000023F968043156
:2035800013460B6000BF1437BD465DF8047B7047003C024080B483B000AF786039600D4B72
:2035A0001B690C4A23F4407313610A4B1B69094A43F400731361074B1B69064A43F001034C
:2035C00013617B683A681A6000BF0C37BD465DF8047B7047003C024080B483B000AF78607C
:2035E0000B467B800D4B1B690C4A23F4407313610A4B1B69094A43F480731361074B1B696F
:20360000064A43F0010313617B687A881A8000BF0C37BD465DF8047B704700BF003C024063
:2036200080B483B000AF78600B46FB700C4B1B690B4A23F440731361094B094A1B691361D3
:20364000074B1B69064A43F0010313617B68FA781A7000BF0C37BD465DF8047B704700BF6B
:20366000003C024080B400AF2F4BDB6803F01003002B08D02D4BDB6943F010032B4AD36178
:20368000294B1022DA60284BDB6803F02003002B08D0264BDB6943F00803244AD361224B79
:2036A0002022DA60204BDB6803F04003002B08D01E4BDB6943F004031C4AD3611A4B40225F
:2036C000DA60194BDB6803F08003002B08D0174BDB6943F00203154AD361134B8022DA60E5
:2036E000114BDB6803F48073002B09D00F4BDB6943F001030D4AD3610B4B4FF48072DA6018
:20370000094BDB6803F00203002B08D0074BDB6943F02003054AD361034B0222DA6000BF3D
:20372000BD465DF8047B7047003C02400C00002080B584B000AF786039600023BB60314B0E
:203740001B7E012B01D1022358E02E4B01221A764CF25030FFF7ACFE0346FB73FB7B002B93
:2037600048D13B684FF0FF321A607B681B68012B15D17B681B69DAB27B685B6819461046DD
:2037800000F044F84CF25030FFF792FE0346FB731D4B1B691C4A23F00403136128E07B6837
:2037A0009B68BB601CE07B681B69DBB21946B86800F050F84CF25030FFF77AFE0346FB7361
:2037C000114B1B69104A23F0FA031361FB7B002B03D03B68BA681A600AE0BB680133BB601C
:2037E0007B68DA687B689B681344BA689A42DAD300F078F8034B00221A76FB7B1846103741
:20380000BD4680BD0C000020003C024080B483B000AF03463960FB710D4B1B690C4A23F411
:20382000407313610A4B1B69094A43F004031361074B1A69FB791B021343054A43F4803392
:20384000136100BF0C37BD465DF8047B704700BF003C024080B485B000AF78600B46FB707B
:203860000023FB60FB78002B02D10023FB6010E0FB78012B03D14FF48073FB6009E0FB788B
:20388000022B03D14FF40073FB6002E04FF44073FB60134B1B69124A23F440731361104B0C
:2038A0001A690F49FB6813430B610D4B1B690C4A23F0F80313610A4B1A697B68DB00134368
:2038C000074A43F002031361054B1B69044A43F48033136100BF1437BD465DF8047B7047D3
:2038E000003C024080B400AF204B1B6803F40073002B17D01D4B1B681C4A23F400731360AF
:203900001A4B1B68194A43F400631360174B1B68164A23F400631360144B1B68134A43F4A7
:2039200000731360114B1B6803F48063002B17D00E4B1B680D4A23F4806313600B4B1B685D
:203940000A4A43F480531360084B1B68074A23F480531360054B1B68044A43F48063136064
:2039600000BFBD465DF8047B704700BF003C024080B489B000AF7860396000237B6100230E
:203980003B610023BB610023FB6159E10122FB6902FA03F37B613B681B687A6913403B6146
:2039A0003A697B699A4240F048813B685B6803F00303012B05D03B685B6803F00303022BBF
:2039C00030D17B689B68BB61FB695B00032202FA03F3DB43BA691340BB613B68DA68FB6915
:2039E0005B0002FA03F3BA691343BB617B68BA699A607B685B68BB610122FB6902FA03F3AA
:203A0000DB43BA691340BB613B685B681B0903F00102FB6902FA03F3BA691343BB617B68A8
:203A2000BA695A603B685B6803F00303032B17D07B68DB68BB61FB695B00032202FA03F31D
:203A4000DB43BA691340BB613B689A68FB695B0002FA03F3BA691343BB617B68BA69DA608B
:203A60003B685B6803F00303022B23D1FB69DA087B68083253F82230BB61FB6903F0070349
:203A80009B000F2202FA03F3DB43BA691340BB613B681A69FB6903F007039B0002FA03F3A4
:203AA000BA691343BB61FB69DA087B680832B96943F822107B681B68BB61FB695B00032219
:203AC00002FA03F3DB43BA691340BB613B685B6803F00302FB695B0002FA03F3BA691343BC
:203AE000BB617B68BA691A603B685B6803F44033002B00F0A2800023FB60574B5B6C564A96
:203B000043F480435364544B5B6C03F48043FB60FB68524AFB699B08023352F82330BB6185
:203B2000FB6903F003039B000F2202FA03F3DB43BA691340BB617B68494A934219D07B68A3
:203B4000484A934213D07B68474A93420DD07B68464A934207D07B68454A934201D1042396
:203B600008E0072306E0032304E0022302E0012300E00023FA6902F0030292009340BA6933
:203B80001343BB613549FB699B080233BA6941F82320384B9B68BB613B69DB43BA69134080
:203BA000BB613B685B6803F48013002B03D0BA693B691343BB612F4ABB6993602D4BDB6877
:203BC000BB613B69DB43BA691340BB613B685B6803F40013002B03D0BA693B691343BB61CE
:203BE000244ABB69D360234B5B68BB613B69DB43BA691340BB613B685B6803F40033002BA4
:203C000003D0BA693B691343BB611A4ABB695360184B1B68BB613B69DB43BA691340BB6107
:203C20003B685B6803F48033002B03D0BA693B691343BB610F4ABB691360FB690133FB6159
:203C4000FB690F2B7FF6A2AE00BF00BF2437BD465DF8047B704700BF0038024000380140E8
:203C6000000002400004024000080240000C024000100240003C014080B483B000AF786067
:203C80000B467B8013467B707B78002B03D07A887B689A6103E07B881A047B689A6100BF22
:203CA0000C37BD465DF8047B704780B485B000AF78600B467B807B685B69FB607A88FB6890
:203CC00013401A04FB68D9437B880B401A437B689A6100BF1437BD465DF8047B70470000D3
:203CE00080B586B000AF78607B68002B01D1012367E27B681B6803F00103002B75D0884BE5
:203D00009B6803F00C03042B0CD0854B9B6803F00C03082B12D1824B5B6803F48003B3F5F6
:203D2000800F0BD17E4B1B6803F40033002B5BD07B685B68002B57D1012342E27B685B6865
:203D4000B3F5803F06D1764B1B68754A43F4803313601DE07B685B68B3F5A02F0CD1704B13
:203D60001B686F4A43F4802313606D4B1B686C4A43F4803313600BE0694B1B68684A23F481
:203D800080331360664B1B68654A23F4802313607B685B68002B13D0FFF7E4F9386108E0E5
:203DA000FFF7E0F902463B69D31A642B01D9032307E25B4B1B6803F40033002BF0D014E0B1
:203DC000FFF7D0F9386108E0FFF7CCF902463B69D31A642B01D90323F3E1514B1B6803F496
:203DE0000033002BF0D100E000BF7B681B6803F00203002B63D04A4B9B6803F00C03002B84
:203E00000BD0474B9B6803F00C03082B1CD1444B5B6803F48003002B16D1414B1B6803F030
:203E20000203002B05D07B68DB68012B01D00123C7E13B4B1B6823F0F8027B681B69DB0036
:203E4000374913430B603AE07B68DB68002B20D0344B01221A60FFF785F9386108E0FFF7BF
:203E600081F902463B69D31A022B01D90323A8E12B4B1B6803F00203002BF0D0284B1B6867
:203E800023F0F8027B681B69DB00254913430B6015E0244B00221A60FFF764F9386108E0D0
:203EA000FFF760F902463B69D31A022B01D9032387E11B4B1B6803F00203002BF0D17B6895
:203EC0001B6803F00803002B36D07B685B69002B16D0154B01221A60FFF744F9386108E0C7
:203EE000FFF740F902463B69D31A022B01D9032367E10B4B5B6F03F00203002BF0D01BE047
:203F0000094B00221A60FFF72DF938610EE0FFF729F902463B69D31A022B07D9032350E1B9
:203F20000038024000004742800E4742884B5B6F03F00203002BEAD17B681B6803F004038C
:203F4000002B00F097800023FB75814B1B6C03F08053002B0FD10023BB607D4B1B6C7C4A25
:203F600043F0805313647A4B1B6C03F08053BB60BB680123FB75774B1B6803F48073002B86
:203F800018D1744B1B68734A43F480731360FFF7E9F8386108E0FFF7E5F802463B69D31A98
:203FA000022B01D903230CE16A4B1B6803F48073002BF0D07B689B68012B06D1644B1B6FB8
:203FC000634A43F0010313671CE07B689B68052B0CD15F4B1B6F5E4A43F0040313675C4B5D
:203FE0001B6F5B4A43F0010313670BE0584B1B6F574A23F001031367554B1B6F544A23F0BC
:20400000040313677B689B68002B15D0FFF7AAF838610AE0FFF7A6F802463B69D31A41F26E
:204020008832934201D90323CBE0494B1B6F03F00203002BEED014E0FFF794F838610AE04E
:20404000FFF790F802463B69D31A41F28832934201D90323B5E03E4B1B6F03F00203002B7C
:20406000EED1FB7D012B05D1394B1B6C384A23F0805313647B689B69002B00F0A180344B7B
:204080009B6803F00C03082B5CD07B689B69022B41D1314B00221A60FFF764F8386108E0AB
:2040A000FFF760F802463B69D31A022B01D9032387E0274B1B6803F00073002BF0D17B681B
:2040C000DA697B681B6A1A437B685B6A9B011A437B689B6A5B08013B1B041A437B68DB6A0C
:2040E0001B061B4913434B601B4B01221A60FFF739F8386108E0FFF735F802463B69D31A93
:20410000022B01D903235CE0114B1B6803F00073002BF0D054E0104B00221A60FFF722F8CB
:20412000386108E0FFF71EF802463B69D31A022B01D9032345E0064B1B6803F00073002B62
:20414000F0D13DE07B689B69012B07D1012338E00038024000700040600047421B4B5B681E
:20416000FB607B689B69012B28D0FB6803F480027B68DB699A4221D1FB6803F03F027B688E
:204180001B6A9A421AD1FA6847F6C07313407A68526A9201934211D1FB6803F440327B6817
:2041A0009B6A5B08013B1B049A4207D1FB6803F070627B68DB6A1B069A4201D0012300E066
:2041C000002318461837BD4680BD00BF0038024080B584B000AF786039607B68002B01D12D
:2041E0000123CCE0684B1B6803F007033A689A420CD9654B3A68D2B21A70634B1B6803F0D5
:2042000007033A689A4201D00123B8E07B681B6803F00203002B20D07B681B6803F00403B0
:20422000002B05D0594B9B68584A43F4E05393607B681B6803F00803002B05D0534B9B68D3
:20424000524A43F460439360504B9B6823F0F0027B689B684D4913438B607B681B6803F03C
:204260000103002B44D07B685B68012B07D1474B1B6803F40033002B19D101237FE07B6897
:204280005B68022B03D07B685B68032B07D13F4B1B6803F00073002B09D101236FE03B4B3E
:2042A0001B6803F00203002B01D1012367E0374B9B6823F003027B685B68344913438B601A
:2042C000FEF750FFF8600AE0FEF74CFF0246FB68D31A41F28832934201D903234FE02B4B19
:2042E0009B6803F00C027B685B689B009A42EBD1254B1B6803F007033A689A420CD2224B28
:204300003A68D2B21A70204B1B6803F007033A689A4201D0012332E07B681B6803F004031D
:20432000002B08D0194B9B6823F4E0527B68DB68164913438B607B681B6803F00803002B75
:2043400009D0124B9B6823F460427B681B69DB000E4913438B6000F021F802460B4B9B68E7
:204360001B0903F00F030A49CB5C22FA03F3094A1360094B1B681846FEF7B0FE0023184669
:204380001037BD4680BD00BF003C024000380240E05B000800000020040000202DE9B04F43
:2043A00090B000AF00237B630023FB6300233B630023BB63584B9B6803F00C03082B0DD0D2
:2043C000082B00F2A080002B02D0042B03D09AE0524BBB639AE0524BBB6397E04E4B5B685C
:2043E00003F03F037B634C4B5B6803F48003002B27D0494B5B689B0900223B627A623B6A79
:20440000C3F308000021464B03FB01F2002300FB03F31344424AA0FB0221F962BA62FA6AAB
:204420001344FB627B6B0022BB61FA61D7E90623D7E90A01FBF72CFF02460B461346FB6328
:2044400053E0354B5B689B0900223B617A613B69C3F3080A4FF0000B52465B464FF000007B
:204460004FF00001590141EAD261500102460B46B2EB0A0863EB0B094FF000024FF00003C6
:204480004FEA891343EA98634FEA8812B2EB080463EB09054FF000024FF00003EB0043EAAC
:2044A0005473E20014461D4614EB0A033B6045EB0B037B604FF000024FF00003D7E900454E
:2044C00029468B02214643EA915321468A02104619467B6B0022BB60FA60D7E90223FBF76C
:2044E000D7FE02460B461346FB630B4B5B681B0C03F0030301335B003B63FA6B3B6BB2FB79
:20450000F3F3BB6302E0054BBB6300BFBB6B18464037BD46BDE8B08F003802400024F40014
:2045200040787D0180B400AF034B1B681846BD465DF8047B704700BF0000002080B500AFE2
:20454000FFF7F0FF0246054B9B689B0A03F007030349CB5C22FA03F3184680BD003802409F
:20456000F05B000880B500AFFFF7DCFF0246054B9B685B0B03F007030349CB5C22FA03F3B0
:20458000184680BD00380240F05B000880B582B000AF78607B68002B01D1012342E07B68BC
:2045A00093F84130DBB2002B06D17B68002283F840207868FCF70CFC7B68242283F84120B0
:2045C0007B681B68DA687B681B6822F40052DA60786800F073F97B681B681A697B681B68A0
:2045E00022F490421A617B681B685A697B681B6822F02A025A617B681B68DA687B681B68C2
:2046000042F40052DA607B6800225A647B68202283F841207B68202283F842207B6800220D
:204620005A63002318460837BD4680BD80B58AB002AFF860B9603B601346FB8000237B61BE
:20464000FB6893F84130DBB2202B75D1BB68002B02D0FB88002B01D101236EE0FB68002246
:204660005A64FB68212283F84120FEF77BFD7861FB68FA889A84FB68FA88DA84FB689B6808
:20468000B3F5805F08D1FB681B69002B04D10023FB61BB68BB6103E0BB68FB610023BB6174
:2046A0002EE03B6800937B6900228021F86800F048F80346002B05D0FB68202283F84120B5
:2046C00003233AE0FB69002B0BD1BB691B881A46FB681B68C2F308025A60BB690233BB6134
:2046E00007E0FB691A78FB681B685A60FB690133FB61FB68DB8C9BB2013B9AB2FB68DA84E9
:20470000FB68DB8C9BB2002BCBD13B6800937B6900224021F86800F014F80346002B05D079
:20472000FB68202283F84120032306E0FB68202283F84120002300E0022318462037BD468B
:2047400080BD80B586B000AFF860B9603B601346FB713BE03B6AB3F1FF3F37D0FEF702FD94
:2047600002463B68D31A3A6A9A4202D33B6A002B01D103233AE0FB681B68DB6803F0040307
:20478000002B23D0BB68802B20D0BB68402B1DD0FB681B681B6803F00803082B16D100231E
:2047A0007B61FB681B681B687B61FB681B685B687B617B69F86800F01DF8FB6808225A64BF
:2047C000FB68002283F8402001230FE0FB681B681A68BB681340BA689A420CBF0123002378
:2047E000DBB21A46FB799A42B4D0002318461837BD4680BD80B495B000AF78607B681B6882
:204800000C337B637B6B53E8003F3B633B6B23F49073FB647B681B680C33FA6C3A64FB6357
:20482000F96B3A6C41E80023BB63BB6B002BE5D17B681B6814333B623B6A53E8003FFB6138
:20484000FB6923F00103BB647B681B681433BA6CFA62BB62B96AFA6A41E800237B627B6ADD
:20486000002BE5D17B681B6B012B19D17B681B680C33FB60FB6853E8003FBB60BB6823F0AA
:2048800010037B647B681B680C337A6CBA617B617969BA6941E800233B613B69002BE5D132
:2048A0007B68202283F842207B6800221A6300BF5437BD465DF8047B704700002DE9B04F87
:2048C000C0B000AFC7F8F400D7F8F4301B681B6923F44050D7F8F430D968D7F8F4301A68BC
:2048E00040EA01031361D7F8F4309A68D7F8F4301B691A43D7F8F4305B691A43D7F8F43046
:20490000DB691343C7F8F830D7F8F4301B68DB6823F4164121F00C01D7F8F4301A68D7F88D
:20492000F8300B43D360D7F8F4301B685B6923F44070D7F8F4309969D7F8F4301A6840EA39
:2049400001035361D7F8F4301A688F4B9A4205D0D7F8F4301A688D4B9A4204D1FFF702FEAB
:20496000C7F8FC0003E0FFF7E9FDC7F8FC00D7F8F430DB69B3F5004F40F00C81D7F8FC301C
:204980000022C7F8E830C7F8EC20D7E93A4522462B469118B9655B41FB65D7E91623214618
:2049A00012EB0108294643EB01094FF000024FF000034FEAC90343EA58734FEAC8029046F1
:2049C0009946234618EB0303C7F8E0302B4649EB0303C7F8E430D7F8F4305B680022C7F8A2
:2049E000D830C7F8DC20D7E936120B46DB183B65134642EB03037B65D7E91423D7E93801AC
:204A0000FBF746FC02460B46614BA3FB02235B091C01D7F8FC300022C7F8D030C7F8D4204A
:204A2000D7E9348942464B469118B9645B41FB64D7E91223414612EB010A494643EB010BD2
:204A40004FF000024FF000034FEACB0343EA5A734FEACA0292469B4643461AEB0303C7F8C1
:204A6000C8304B464BEB0303C7F8CC30D7F8F4305B680022C7F8C030C7F8C420D7E930128A
:204A80000B46DB183B64134642EB03037B64D7E91023D7E93201FBF7FBFB02460B4611460A
:204AA0003B4BA3FB01235B09642202FB03F3CB1ADB0003F13202364BA3FB02235B095B00E6
:204AC00003F4F8731C44D7F8FC300022C7F8B830C7F8BC20D7E92E8942464B469118B96360
:204AE0005B41FB63D7E90E2341465118396349464B417B634FF000024FF00003D7E90CAB4C
:204B00005946CB00514643EA51735146CA0010461946034642469B18C7F8B0304B460A4689
:204B200042EB0303C7F8B430D7F8F4305B680022C7F8A830C7F8AC20D7E92A120B46DB1865
:204B4000BB62134642EB0303FB62D7E90A23D7E92C01FBF79DFB02460B460D4BA3FB021347
:204B60005B09642101FB03F3D31ADB003233084AA2FB03235B0903F00702D7F8F4301B6842
:204B800022449A6006E100BF00100140001401401F85EB51D7F8FC300022C7F8A030C7F81E
:204BA000A420D7E9288942464B46911839625B417B62D7E9082341465418494643EB010549
:204BC0004FF000024FF00003EB0043EA5473E20014461D464346E318C7F898304B4645EB08
:204BE0000303C7F89C30D7F8F4305B680022C7F89030C7F894204FF000024FF00003D7E917
:204C0000244529468B00214643EA917321468A00D7E92601FBF73CFB02460B46604BA3FBB6
:204C200002235B091C01D7F8FC300022C7F88830C7F88C20D7E9228942464B469118B96188
:204C40005B41FB61D7E9062341465118396149464B417B614FF000024FF00003D7E904AB00
:204C60005946CB00514643EA51735146CA0010461946034642469B18C7F880304B460A4658
:204C800042EB0303C7F88430D7F8F4305B680022BB67FA674FF000024FF00003D7E91E8929
:204CA00049468B00414643EA917341468A00D7E92001FBF7EDFA02460B461146384BA3FB46
:204CC00001235B09642202FB03F3CB1A1B013233334AA2FB03235B0903F0F0031C44D7F8B4
:204CE000FC3000223B677A67D7E91C8942464B469118B9605B41FB60D7E9022341465118D7
:204D0000396049464B417B604FF000024FF00003D7E900AB5946CB00514643EA517351468D
:204D2000CA0010461946034642469B18BB664B460A4642EB0303FB66D7F8F4305B68002202
:204D40003B667A664FF000024FF00003D7E9188949468B00414643EA917341468A00D7E94B
:204D60001A01FBF795FA02460B460D4BA3FB02135B09642101FB03F3D31A1B013233084A58
:204D8000A2FB03235B0903F00F02D7F8F4301B6822449A6000BF07F58077BD46BDE8B08F79
:204DA0001F85EB51B0B586B000AFF860B9601346FB8000237B61FEF73DFB1BE07B699B00DE
:204DC000BA6813441B6800221C46154622462B46F9680220FEF7DCFA0346002B06D1FB6823
:204DE0000433FB607B6901337B6103E0FEF754FB034606E0FB887A699A42DFDBFEF73CFBAF
:204E0000002318461837BD46B0BD80B58AB000AF7860396007F1100300221A605A609A6068
:204E2000DA601A617B68BB613B68FB6102233B62FEF700FB07F10C0207F110031146184647
:204E4000FEF776FC0346002B03D0FEF725FB034600E000237B62FEF70FFB7B6A18462837C5
:204E6000BD4680BD30B51446002C9BB005461A4605DA8B2303604FF0FF301BB030BD4FF438
:204E80000273ADF80C304FF00003199314BF04F1FF332346029305934FF6FF730091049161
:204EA000ADF80E3069461E9B00F0B2F9431CBCBF8B232B60002CE0D0009B00221A70DCE713
:204EC00007B5009313460A46014603480068FFF7C9FF03B000BD00BF2C0000200244034618
:204EE000934200D1704703F8011BF9E7014B1868704700BF2C00002070B50D4B0D4D5B1B83
:204F00009C100026A64209D100F06EFC0A4D0B4B5B1B9C100026A64205D170BD55F8043B37
:204F200098470136EEE755F8043B98470136F2E7E45D0008E45D0008E45D0008E85D0008E3
:204F4000704770470A44914200F1FF3300D1704710B511F8014B03F8014F9142F9D110BD48
:204F600038B50546002941D051F8043C0C1F002BB8BFE41800F0E0F81D4A136833B9636014
:204F800014602846BDE8384000F0DCB8A34208D9206821188B4201BF19685B680918216094
:204FA000EDE71A465B680BB1A342FAD911685018A0420BD120680144501883421160E0D1CB
:204FC00018685B68536008441060DAE702D90C232B60D6E7206821188B4204BF19685B6877
:204FE000636004BF091821605460CAE738BD00BF3002002070B50F4E0C463168054611B99C
:2050000000F0ACFB30602146284600F0A7FB431C03D14FF0FF34204670BDC41C24F00304CF
:20502000A042F8D0211A284600F098FB0130F2D1EFE700BF2C0200202DE9F843CD1C25F074
:20504000030508350C2D38BF0C25002D064601DBA94204D90C2333600020BDE8F883DFF8B4
:20506000D48000F069F8D8F800301C4644BB29463046FFF7BFFF431C044658D1D8F80040AF
:205080002746002F43D1002C4BD023683946304604EB030900F062FB814542D121686D1A68
:2050A00029463046FFF7A6FF01303AD023682B442360D8F800305A6862BBC8F800700FE0BA
:2050C0002268521B20D40B2A17D96119A342256018BF5960636808BFC8F8001062514B608C
:2050E000304600F02FF804F10B00231D20F00700C21A1CBF1B1AA350AFE76268A3420CBFDD
:20510000C8F800205A60EBE723466468AEE73C467F68B6E71A465B68A342FBD100235360A9
:20512000DEE70C233360304600F00CF894E70560D6E700BF300200200148FFF701BF00BF12
:20514000280200200148FFF7FCBE00BF280200202DE9F0478E681F46BE4282460C4690466B
:20516000334653D8B1F90C0010F4906F2BD065692368096905EB4505A3EB010905EBD57500
:205180007B1C6D104B44AB422A4684BF1D462A46430527D511465046FFF74EFF064658B32E
:2051A00021694A46FFF7CEFEA38923F4906343F08003A381266165614E44A5EB0905266000
:2051C000A5603E463B461F4620683A46414600F0ABFAA3689B1BA36023683B4423600020CB
:2051E000BDE8F087504600F0C9FA06460028E1D121695046FFF7B4FE0C23CAF80030A3890F
:2052000043F04003A3814FF0FF30E9E73E46DBE72DE9F0471F468B891B069CB006460D469E
:20522000144610D50B6973B94021FFF705FF2860286130B90C2333604FF0FF301CB0BDE899
:20524000F08740236B610023099320238DF8293003973023654F8DF82A304FF00108234697
:20526000994613F8012B0AB1252AF9D1B9EB040A0BD05346224629463046FFF769FF013042
:2052800000F0A480099A5244099299F80030002B00F09C8000234FF0FF32CDE9052309F1C3
:2052A0000109049307938DF853301A934C464F4814F8011B0522FAF79BFF049BD0B9D806F5
:2052C00044BF20228DF85320190744BF2B228DF8532099F800202A2A13D0079A4C460020EE
:2052E0004FF00A0C214611F8013B303B092B49D968B913E0C01B08FA00F018430490A14635
:20530000D4E7039A111D12680391002A01DB079204E0524243F002030792049323782E2B86
:205320000AD163782A2B32D1039B1A1D1B68039243EAE37302340593DFF8C090217803223C
:205340004846FAF755FF38B1049BA0EB09004022824013430134049314F8011B24488DF8FF
:2053600028100622FAF744FF002835D0214818BB039B073323F0070308330393099B03447F
:2053800009936CE70CFB02320C460120AAE700230134059319464FF00A0C204610F8012BA1
:2053A000303A092A03D9002BC6D00591C4E70CFB012104460123F0E703AB00932A460E4BFA
:2053C00004A93046AFF30080421CD7D1AB895B063FF532AF099831E703AB00932A46064B1D
:2053E00004A9304600F07AF8EEE700BFA85D0008B25D00080000000051510008AE5D0008B3
:205400002DE9F047164698468A680B69DDF820909342B8BF1346336091F8432007460C4657
:205420000AB1013333602368990642BF336802333360256815F0060506D104F1190AE36885
:2054400032689B1AAB4226DC94F843302268003B18BF012392062BD404F143024146384679
:20546000C84701301ED02368226903F00603042B02BFE5683368ED1AA3680CBF25EAE575CE
:2054800000259342C4BF9B1AED1800261A34B5421AD1002008E00123524641463846C847A7
:2054A000013003D14FF0FF30BDE8F0870135C6E7E1185A1C302081F84300224494F84510B8
:2054C00082F843100233C7E70123224641463846C8470130E6D00136D9E700002DE9F04355
:2054E0000D7E85B0782D90460C9E07460C46994601F1430207D8622D0AD8002D00F0D7804E
:20550000582D00F0BC8004F1420684F842503BE0A5F16303152BF6D801A151F823F000BFAD
:20552000795500088D550008075500080755000807550008075500088D55000807550008CD
:2055400007550008075500080755000895560008B7550008475600080755000807550008AB
:20556000B756000807550008B755000807550008075500084F56000833681A1D1B68326042
:2055800004F1420684F842300123A1E033682068191D3160060601D51D6803E04506FBD5EC
:2055A000B3F90050002D03DA2D236D4284F843305B480A2311E021683368080653F8045B5A
:2055C00002D4490648BFADB23360237E54486F2B5CD10823002184F843106668A660002E8C
:2055E00005DB21682E4321F00401216050D01646B5FBF3F103FB115C10F80CC006F801CD1F
:20560000AC4663450D46F3D9082B0BD12368DB0708D5236961689942DEBF302306F8013C1D
:2056200006F1FF36921B2261CDF80090434603AA21463846FFF7E4FE01304ED14FF0FF3008
:2056400005B0BDE8F083236843F0200323603548782584F845502368316813F0800F51F8EF
:20566000045B03D113F0400F18BFADB23160D90744BF43F0200323601DB11023AAE7284820
:20568000E7E7236823F020032360F6E70A23A1E71646B9E7336825686169181D30602E067F
:2056A0001B6801D5196002E06806FBD51980002323611646B8E733681A1D32601E68626809
:2056C00000213046FAF794FD08B1801B606063682361002384F84330A6E723693246414624
:2056E0003846C8470130A9D023689B0713D4E068039B9842B8BF1846A2E70123324641461E
:205700003846C847013099D00135E36803995B1AAB42F2DCEBE7002504F11906F5E700BF6F
:20572000B95D0008CA5D0008884210B501EB020402D98442234607D8431EA14207D011F88E
:20574000012B03F8012FF8E70244824200D110BD13F8011D02F8011DF7E7000038B5064D0C
:205760000023044608462B60FBF7AAFB431C02D12B6803B1236038BD240200202DE9F041CE
:20578000074614460D4621B9BDE8F0411146FFF753BC2AB9FFF7E4FB25462846BDE8F0815C
:2057A00000F01AF88442064602D8B4EB500FF4D821463846FFF740FC804608B94546ECE735
:2057C000B4422246294628BF3246FFF7BBFB29463846FFF7C5FBF1E751F8043C181F002B8B
:2057E000BCBF0B58C0187047F8B500BFF8BC08BC9E467047F8B500BFF8BC08BC9E4670473E
:205800004572726F7220696E20466C6173685F57726974655F4461746120776974682072C8
:2058200065743A202564000066775F636F70795F746F5F736563746F7220737563636565EC
:2058400064656420696E20636F7079696E6720617070000043757272656E74206170702046
:2058600076657273696F6E2069733A202578000043757272656E74207570646174655F61E9
:2058800070705F6865616465722076657273696F6E2069733A202578000000005B424C5D01
:2058A0003A204661696C656420766572696679696E672075706461746564206669726D770A
:2058C00061726520617070207769746820726561736F6E3A2025640D0A00000066775F6312
:2058E0006F70795F746F5F61646472657373206661696C656420696E20636F7079696E6734
:205900000D0A00005B424C5D3A204661696C656420766572696679696E672075706461745A
:205920006564206669726D7761726520617070207769746820726561736F6E3A2025640A4F
:20594000000000004572726F7220636F7079696E67206D61696E2061707020746F206E6508
:205960007720616464726573732C2065786974696E670D0A000000004572726F7220636F53
:205980007079696E6720636F70696564206669726D776172652066726F6D2072616D207407
:2059A0006F206E657720616464726573732C2065786974696E670D0A000000005B424C5D67
:2059C0003A20626C5F76656966795F61707020616464726573733A2025780D0A0000000069
:2059E0005B424C5D3A20626C5F7665726966795F6170703A20766572696679206D616769F8
:205A00006320636F6E7374616E740D0A000000005B424C5D3A20626C5F7665726966795FC1
:205A20006170703A207665726966792066772073697A650D0A0000005B424C5D3A20626CD9
:205A40005F7665726966795F6170703A207665726966792043524320636865636B0D0A0096
:205A60005B424C5D3A20696D20636865636B696E6720616464726573732025780D0A00007A
:205A80005B424C5D3A206265666F72652065636473610D0A000000005B424C5D3A20626C4E
:205AA0005F7665726966795F6170703A20766572696679207369676E61747572650D0A005A
:205AC0005B424C5D3A20626C5F7665726966795F6170703A20616C6C206F6B0D0A00000020
:205AE000456E746572696E6720626F6F746C6F616465722E0D0A00005B424C5D3A20537770
:205B00006170207375636365737366756C6C0A005B424C5D3A2053776170204E4F54212150
:205B20002121207375636365737366756C6C0A00566572696679696E67206170702E2E0DD0
:205B40000A000000424F4F54793A20566572696669636174696F6E206661696C65640D0AB5
:205B600000000000424F4F54793A204170706C69636174696F6E2076616C696461746564DC
:205B8000207375636365737366756C6C792C206A756D70696E6720746F206170700D0A00FF
:205BA0007224DE17D13EE1EEE3953D976F7BFF317616BB8DC1DC7C8B15F438F8BD26BAB018
:205BC00022E43107EC33DFA5C14B8035BF354E823B59729BB6638F0C9F5A6EEA640EFE78D1
:205BE00000000000000000000102030406070809000000000102030408200001FFFFFFFF4E
:205C0000FFFFFFFFFFFFFFFF00000000000000000000000001000000FFFFFFFF512563FCBA
:205C2000C2CAB9F3849E17A7ADFAE6BCFFFFFFFFFFFFFFFF00000000FFFFFFFF96C298D847
:205C40004539A1F4A033EB2D817D0377F240A463E5E6BCF847422CE1F2D1176BF551BF37FF
:205C60006840B6CBCE5E316B5733CE2B169E0F7C4AEBE78E9B7F1AFEE242E34F4B60D2279B
:205C80003E3CCE3BF6B053CCB0061D65BC86987655BDEBB3E7933AAAD835C65AD71B0008FF
:205CA000D51D0008611E0008982F8A4291443771CFFBC0B5A5DBB5E95BC25639F111F159FE
:205CC000A4823F92D55E1CAB98AA07D8015B8312BE853124C37D0C55745DBE72FEB1DE807A
:205CE000A706DC9B74F19BC1C1699BE48647BEEFC69DC10FCCA10C246F2CE92DAA84744A2F
:205D0000DCA9B05CDA88F97652513E986DC631A8C82703B0C77F59BFF30BE0C64791A7D5A4
:205D20005163CA0667292914850AB72738211B2EFC6D2C4D130D385354730A65BB0A6A769B
:205D40002EC9C281852C7292A1E8BFA24B661AA8708B4BC2A3516CC719E892D1240699D6CB
:205D600085350EF470A06A1016C1A419086C371E4C774827B5BCB034B30C1C394AAAD84ECB
:205D80004FCA9C5BF36F2E68EE828F746F63A5781478C8840802C78CFAFFBE90EB6C50A4D2
:205DA000F7A3F9BEF27871C6232D302B2000686C4C0065666745464700303132333435369D
:205DC0003738394142434445460030313233343536373839616263646566000004A4FF7FFE
:205DE00001000000C5010008A10100080024F4001000000001000000000000000000000001
:205E0000000000000000000001000000000000000000000000000000300000200000000031
:205E2000EC00002054010020BC010020000000000000000000000000000000000000000004
:205E4000000000000000000000000000000000000000000000000000000000000000000042
:085E600000000000000000003A
:20800000E5B1000B000001008C3B0000B43F4B5313B2E062DBC3A66130957B31C8FEB7EBE1
:20802000DE27ED292676FDC8AB9E2965802F01448AAC29A5C89308D5FDBBDAC6045D5FEFB6
:208040006ECBDEC57F2F0CBC816256DCFE55BD420000000000000000000000000000000067
:20806000000000000000000000000000000000000000000000000000000000000000000000
:208080000000000000000000000000000000000000000000000000000000000000000000E0
:2080A0000000000000000000000000000000000000000000000000000000000000000000C0
:2080C0000000000000000000000000000000000000000000000000000000000000000000A0
:2080E000000000000000000000000000000000000000000000000000000000000000000080
:2081000000000000000000000000000000000000000000000000000000000000000000005F
:2081200000000000000000000000000000000000000000000000000000000000000000003F
:2081400000000000000000000000000000000000000000000000000000000000000000001F
:208160000000000000000000000000000000000000000000000000000000000000000000FF
:208180000000000000000000000000000000000000000000000000000000000000000000DF
:2081A0000000000000000000000000000000000000000000000000000000000000000000BF
:2081C00000000000000000000000000000000000000000000000000000000000000000009F
:2081E00000000000000000000000000000000000000000000000000000000000000000007F
:2082000000000220858E0008E18C0008E98C0008F18C0008F98C0008018D00080000000087
:20822000000000000000000000000000098D0008178D000800000000258D0008338D000872
:20824000D58E0008D58E0008D58E0008D58E0008D58E0008D58E00083F8D0008D58E00085D
:20826000D58E0008D58E0008D58E0008D58E0008D58E0008D58E0008D58E0008D58E0008A6
:20828000D58E0008D58E0008D58E000800000000000000000000000000000000D58E000832
:2082A000D58E0008D58E0008D58E0008D58E00084D8D0008D58E0008D58E0008D58E0008EF
:2082C000D58E0008D58E0008D58E0008D58E0008D58E0008618D0008758D00080000000087
:2082E000D58E0008D58E0008D58E000800000000000000000000000000000000D58E0008D2
:2083000000000000D58E0008D58E0008D58E0008000000000000000000000000000000001C
:20832000D58E0008D58E0008D58E0008D58E0008D58E000800000000000000000000000026
:20834000000000000000000000000000D58E0008D58E0008D58E0008D58E0008D58E000806
:20836000D58E0008D58E000800000000000000000000000000000000000000000000000027
:2083800000000000D58E00080000000000000000D58E0008D58E000810B5054C237833B9FF
:2083A000044B13B10448AFF300800123237010BD3000002000000000D8BC000808B5034BC1
:2083C0001BB103490348AFF3008008BD0000000034000020D8BC0008034613F8012B002AB9
:2083E000FBD1181A0138704753B94AB9002908BF00281CBF4FF0FF314FF0FF3000F088B97F
:20840000ADF1080C6DE904CE00F006F8DDF804E0DDE9022304B070472DE9F047089D0F463E
:2084200004468C46002B48D18A42164661D9B2FA82F34BB1C3F1200201FA03FC20FA02F27F
:208440009E4042EA0C0C9C404FEA164EB7B2BCFBFEF1220C0EFB11CC42EA0C4201FB07F0F1
:20846000904209D9B21801F1FF3C80F0EE80904240F2EB8002393244121AA4B2B2FBFEF036
:208480000EFB102244EA024400FB07F7A74209D9341900F1FF3280F0DA80A74240F2D780BE
:2084A0003444023840EA0140E41B00211DB1DC400023C5E90043BDE8F0878B4206D90DB1FB
:2084C000C5E9000100210846BDE8F087B3FA83F1002948D1BB4202D3824200F20781841A51
:2084E00067EB030201209446002DE4D0C5E9004CE1E7002A00F09280B2FA82F3002B40F0DF
:20850000A8808A1A4FEA164E1FFA86FC0121200CB2FBFEF70EFB172240EA02420CFB07F0B9
:20852000904207D9B21807F1FF3802D2904200F2E2804746121AA4B2B2FBFEF00EFB1022B1
:2085400044EA02440CFB00FCA44507D9341900F1FF3202D2A44500F2CB801046A4EB0C047D
:2085600040EA0740A2E7C1F120068B4022FA06FC4CEA030C07FA01F420FA06F3F7404FEA82
:208580001C49234300FA01F81FFA8CFEB7FBF9F01C0C09FB107744EA074400FB0EF7A742CA
:2085A00002FA01F20AD91CEB040400F1FF3A80F09B80A74240F2988002386444E41B9FB2C0
:2085C000B4FBF9F309FB134447EA044403FB0EFEA64509D91CEB040403F1FF3780F08280AA
:2085E000A6457FD9023B644443EA0040A4EB0E04A0FB02E7BC427346B94663D360D05DB197
:20860000B8EB030264EB090404FA06F622FA01F31E43CC40C5E9006400214CE762084808BF
:2086200042EAC1710B0C43EA00438AB242EA0342B3FBF6F1E407B4463746B6461F23B0FBC8
:20864000F6F0D21B41EA004161E7614614E7104628E7C3F1200120FA01F29E4027FA01F1B9
:208660009F403A434FEA164E1FFA86FCB1FBFEF70EFB1710110C41EA004107FB0CF8884539
:2086800004FA03F43AD9711807F1FF3001D288451FD8A1EB0801B1FBFEF808FB0CF70EFB45
:2086A000181192B242EA0142BA422FD2B21808F1FF31C6D2BA42C4D2A8F102013244C0E70B
:2086C000F0459CD2BEEB020367EB0C070138B94695E7A6EB08084144B81EB1FBFEF808FB8F
:2086E0000CF7DCE73B467FE7504667E70846FBE63444023832E7023F32441BE7A1EB0801A1
:208700003846B1FBFEF808FB0CF7C8E7414698E7704700BF80B500AF00F0DEFB00F026F84D
:2087200000F02CF900F0D6F800F088F800F0FCF800F03CFB01220949094802F0E8FA094800
:2087400000F086F94FF40051074801F06CF94FF4FA7000F033FC00BFF4E700BF2401002007
:2087600094000020F0BC00080008024080B594B000AF07F1200330220021184603F07FFAC7
:2087800007F10C0300221A605A609A60DA601A610023BB60274B1B6C264A43F080531364A9
:2087A000244B1B6C03F08053BB60BB6800237B60214B1B68204A43F4404313601E4B1B684F
:2087C00003F440437B607B6802233B620123FB6210233B630223BB630023FB6308233B64BF
:2087E00064237B640223BB640423FB6407F12003184601F04BF90346002B01D000F090F9DD
:208800000F23FB6002233B6100237B614FF48053BB610023FB6107F10C030321184601F0E0
:20882000ADFB0346002B01D000F07AF900BF5037BD4680BD003802400070004080B586B0CD
:2088400000AF07F1080300221A605A609A60DA603B4600221A605A601D4B4FF080421A6022
:208860001B4B00225A601A4B00229A60184B40F2F312DA60164B00221A61154B80229A6166
:20888000134801F059FD0346002B01D000F048F94FF48053BB6007F1080319460C4801F0E8
:2088A0008AFE0346002B01D000F03AF900233B6000237B603B461946054802F095F8034617
:2088C000002B01D000F02CF900BF1837BD4680BD4C00002080B500AF114B124A1A60104B5C
:2088E0004FF4E1325A600E4B00229A600C4B0022DA600B4B00221A61094B0C225A61084BBD
:2089000000229A61064B0022DA61054802F0EEF80346002B01D000F003F900BF80BD00BF7B
:20892000940000200010014080B500AF114B124A1A60104B4FF4E1325A600E4B00229A603C
:208940000C4B0022DA600B4B00221A61094B0C225A61084B00229A61064B0022DA610548C9
:2089600002F0C4F80346002B01D000F0D9F800BF80BD00BFDC0000200044004080B588B09B
:2089800000AF07F10C0300221A605A609A60DA601A610023BB602B4B1B6B2A4A43F0040334
:2089A0001363284B1B6B03F00403BB60BB6800237B60244B1B6B234A43F001031363214B97
:2089C0001B6B03F001037B607B6800233B601D4B1B6B1C4A43F0020313631A4B1B6B03F0BE
:2089E00002033B603B6800224FF40051164801F001F84FF40053FB6001233B6100237B6186
:208A00000023BB6107F10C0319460F4800F06EFE0123FB604FF488133B6100237B6107F10E
:208A20000C031946094800F061FE00220021062000F0C3FB062000F0DCFB00BF2037BD460B
:208A400080BD00BF00380240000802400004024080B582B000AF78607868FFF7BDFC03464A
:208A60009AB264237968034802F090F800BF0837BD4680BD9400002080B582B000AF03462C
:208A8000FB8000F08FFA0246084B1B68D31A642B07D900F087FA0346044A13600448FFF7AB
:208AA000D7FF00BF0837BD4680BD00BF280100200CBD000880B582B000AF78607B681B6875
